S0150000736B657463685F6D61723136612E7372656326
S11300000C945C000C9479000C9479000C947900A5
S11300100C9479000C9479000C9479000C94790078
S11300200C9479000C9479000C9479000C94790068
S11300300C9479000C9479000C9479000C94790058
S11300400C9425030C9479000C9479000C94790099
S11300500C9479000C9479000C9479000C94790038
S11300600C9479000C94790000000008000201004F
S1130070000304070000000000000000010204085F
S113008010204080010204081020010204081020FE
S1130090040404040404040402020202020203032A
S11300A00303030300000000250028002B000000C8
S11300B00000240027002A0011241FBECFEFD8E03F
S11300C0DEBFCDBF11E0A0E0B1E0E6ECFCE002C091
S11300D005900D92A630B107D9F721E0A6E0B1E072
S11300E001C01D92A534B207E1F70E9416030C94D7
S11300F061060C94000044EF51E06EE084E491E06A
S11301000E940C0590933A018093390144EF51E029
S11301106FE084E491E00E940C0590933801809391
S1130120370144EF51E060E184E491E00E940C0562
S1130130909336018093350144EF51E061E184E40A
S113014091E00E940C05909334018093330161E0A7
S113015089E00E945D0461E08AE00E945D0461E040
S11301608BE00E945D0461E08CE00E945D0460E02D
S113017089E00E94990460E08AE00E94990460E0AA
S11301808BE00E94990460E08CE00C94990424E0D4
S113019030E040E050E060E070E0CB010E94EA040F
S11301A0662341F0613041F0623041F0633039F44C
S11301B068E005C061E003C062E001C064E0E09172
S11301C0120181E08E0F80931201F0E0ED5EFE4F8C
S11301D06083089544E150E06EE084E491E00E947D
S11301E00C0590930D0180930C0144E150E06FE005
S11301F084E491E00E940C0590930B0180930A0122
S113020044E150E060E184E491E00E940C059093A5
S113021009018093080144E150E061E184E491E044
S11302200E940C0560910C0170910D01209139011F
S113023030913A01621B730B70930D0160930C01B2
S113024040910A0150910B012091370130913801FE
S1130250421B530B50930B0140930A012091080158
S113026030910901E0913501F09136012E1B3F0BCD
S11302703093090120930801E0913301F091340196
S11302808E1B9F0BFC0190930701809306016F3135
S1130290710544F0909111019A3030F49F5F90936E
S11302A0110102C0109211014F31510544F0909197
S11302B010019A3030F49F5F9093100102C01092A5
S11302C010012F31310544F090910F019A3030F430
S11302D09F5F90930F0102C010920F017F9744F02B
S11302E080910E018A3030F48F5F80930E0108955F
S11302F010920E01089580910C0190910D010A97BE
S1130300A4F480910A0190910B010A9784F48091DE
S11303100801909109010A9764F480910601909173
S113032007010A9744F480E0089581E0089582E08B
S1130330089584E0089588E00895CF93C82F80FF3E
S113034002C061E001C060E08CE00E949904C1FF3A
S113035002C061E001C060E08BE00E949904C2FF2A
S113036002C061E001C060E08AE00E949904C3FF1A
S113037002C061E001C060E089E0CF910C9499046F
S1130380CF93C0E080911201C817C0F4EC2FF0E0C5
S1130390ED5EFE4F80810E949D0166E970E080E081
S11303A090E00E94A00380E00E949D0166E970E055
S11303B080E090E00E94A003CF5FE4CFCF91089546
S11303C0CF92DF92EF92FF92CF930E946F036B0163
S11303D07C010E946F03DC01CB018C199D09AE09DD
S11303E0BF09883B9B40A105B10508F50E94EA00BE
S11303F00E947B01C82F882361F30E949D0166E956
S113040070E080E090E00E94A00380E00E949D01E3
S11304100E947B01882319F00E94EA00F9CF6AE068
S113042070E080E090E00E94A0038C2F01C080E087
S1130430CF91FF90EF90DF90CF900895CF92DF920D
S1130440EF92FF92CF930E946F036B017C0182E1D4
S11304500E941704092E000CAA0BBB0BBC01CD0192
S11304606C0D7D1D8E1D9F1D0E94C80410921201EB
S1130470809112018D30E8F40E94C7000E94C001EF
S1130480C0E080911201C81768F40E94E00188233B
S113049091F0EC2FF0E0ED5EFE4F908189130BC0DC
S11304A0CF5FEFCF68EE73E080E090E00E94A0039E
S11304B0DFCF81E001C080E0CF91FF90EF90DF902B
S11304C0CF90089586E00E949D0164E170E080E091
S11304D090E00E94A00389E00E949D0164E170E025
S11304E080E090E00E94A00386E00E949D0164E108
S11304F070E080E090E00E94A00389E00E949D01EA
S113050064E170E080E090E00C94A00383E00E943A
S11305109D016AEF70E080E090E00E94A0038CE00F
S11305200E949D016AEF70E080E090E00E94A003C9
S113053083E00E949D016AEF70E080E090E00E94F9
S1130540A0038CE00E949D016AEF70E080E090E0DF
S11305500C94A0030E94EA0081E00E949D0164E6DD
S113056070E080E090E00E94A0030E947B01811172
S11305702DC00E94EA0084E00E949D0164E670E0C0
S113058080E090E00E94A0030E947B0181111EC0C4
S11305900E94EA0082E00E949D0164E670E080E02F
S11305A090E00E94A0030E947B0181110FC00E9471
S11305B0EA0088E00E949D0164E670E080E090E03B
S11305C00E94A0030E947B01882321F20895CF9307
S11305D0DF93CAE0D0E00E94EA002197E1F70E948D
S11305E0AA028FE00E949D0168EE73E080E090E033
S11305F00E94A00380E00E949D016AEF70E080E009
S113060090E00E94A0030E941E02882321F0DF9143
S1130610CF910C9462020E9486026CE271E080E049
S113062090E0DF91CF910C94A00308950E94DC0325
S11306300E9415030E947B00C0E0D0E00E94E70204
S11306402097E1F30E940000F9CF1F920F920FB69A
S11306500F9211242F933F938F939F93AF93BF9344
S113066080913C0190913D01A0913E01B0913F01E8
S113067030913B0123E0230F2D3720F40196A11D77
S1130680B11D05C026E8230F0296A11DB11D2093BC
S11306903B0180933C0190933D01A0933E01B093B4
S11306A03F018091400190914101A0914201B0919C
S11306B043010196A11DB11D809340019093410116
S11306C0A0934201B0934301BF91AF919F918F9149
S11306D03F912F910F900FBE0F901F9018952FB739
S11306E0F89460913C0170913D0180913E0190919C
S11306F03F012FBF08953FB7F89480914001909136
S11307004101A0914201B091430126B5A89B05C0C7
S11307102F3F19F00196A11DB11D3FBFBA2FA92F7C
S1130720982F8827820F911DA11DB11DBC01CD01F9
S113073042E0660F771F881F991F4A95D1F70895E5
S11307408F929F92AF92BF92CF92DF92EF92FF92DD
S11307506B017C010E947B034B015C01C114D10439
S1130760E104F10401F10E945B050E947B03DC01BA
S1130770CB0188199909AA09BB09883E9340A105B0
S1130780B10560F321E0C21AD108E108F10888EE4E
S1130790880E83E0981EA11CB11CC114D104E1048D
S11307A0F10419F7DBCFFF90EF90DF90CF90BF906B
S11307B0AF909F908F900895789484B5826084BDA3
S11307C084B5816084BD85B5826085BD85B5816051
S11307D085BDEEE6F0E0808181608083E1E8F0E0B1
S11307E01082808182608083808181608083E0E8E0
S11307F0F0E0808181608083E1EBF0E080818460BF
S11308008083E0EBF0E0808181608083EAE7F0E0C0
S11308108081846080838081826080838081816024
S113082080838081806880831092C10008958E3017
S113083008F08E502091040190E4299F9001112426
S11308408770822B80937C0080917A0080648093EF
S11308507A0080917A0086FDFCCF80917800209107
S1130860790090E0922B0895833081F028F4813050
S113087099F08230A1F008958730A9F08830B9F05A
S11308808430D1F4809180008F7D03C080918000FA
S11308908F7780938000089584B58F7702C084B5E4
S11308A08F7D84BD08958091B0008F7703C08091BF
S11308B0B0008F7D8093B0000895CF93DF9390E0D4
S11308C0FC01E458FF4F2491FC01E057FF4F849151
S11308D0882361F190E0880F991FFC01E255FF4FD6
S11308E0C591D491FC01EC55FF4FA591B4916111D0
S11308F009C09FB7F8948881209582238883EC915E
S11309002E230BC0623061F49FB7F8948881322F94
S1130910309583238883EC912E2B2C939FBF06C0A4
S11309208FB7F894E8812E2B28838FBFDF91CF9166
S113093008951F93CF93DF93282F30E0F901E859EE
S1130940FF4F8491F901E458FF4FD491F901E05726
S1130950FF4FC491CC23C1F0162F81110E9434049F
S1130960EC2FF0E0EE0FFF1FEC55FF4FA591B49173
S11309709FB7F894111104C08C91D095D82302C06C
S1130980EC91DE2BDC939FBFDF91CF911F910895F3
S1130990611571058105910511F00C9450060895B7
S11309A0CF92DF92EF92FF92611571058105910557
S11309B049F06B017C010E940206A70196010E9486
S11309C05C0503C060E070E0CB01FF90EF90DF9026
S11309D0CF900895CF92DF92EF92FF920F931F93DF
S11309E0621773078407950784F489019A016B01E0
S11309F07C01C901B8016C197D098E099F090E9407
S1130A00D0046C0D7D1D8E1D9F1D1F910F91FF90B5
S1130A10EF90DF90CF900895BF92CF92DF92EF9244
S1130A20FF920F931F93CF93DF93B62EEA0100E05A
S1130A3010E0C12CD12C76010C171D074CF562E097
S1130A408B2D0E945D0480917C008F6180937C00DB
S1130A5080917A00806480937A0080917A0084FF88
S1130A60FCCF80917A00806180937A0060E08B2DC6
S1130A700E945D048B2D0E941704092E000CAA0B02
S1130A80BB0BC80ED91EEA1EFB1E0F5F1F4FD4CF2F
S1130A909E01DD0F440B550BC701B6010E945C0596
S1130AA0C901DF91CF911F910F91FF90EF90DF90DB
S1130AB0CF90BF9008950895052E97FB1EF40094DF
S1130AC00E94730557FD07D00E94860507FC03D0DA
S1130AD04EF40C94730550954095309521953F4FF5
S1130AE04F4F5F4F089590958095709561957F4F16
S1130AF08F4F9F4F08950E94A805A59F900DB49F06
S1130B00900DA49F800D911D11240895A1E21A2E29
S1130B10AA1BBB1BFD010DC0AA1FBB1FEE1FFF1F9D
S1130B20A217B307E407F50720F0A21BB30BE40BED
S1130B30F50B661F771F881F991F1A9469F7609534
S1130B407095809590959B01AC01BD01CF010895EE
S1130B50A29FB001B39FC001A39F700D811D1124FA
S1130B60911DB29F700D811D1124911D08958F92C6
S1130B709F92AF92BF92CF92DF92EF92FF92CF9368
S1130B80DF93EC01688179818A819B81611571050C
S1130B908105910521F464E279ED8BE597E02DE17F
S1130BA033EF41E050E00E945C0549015A019B018A
S1130BB0AC01A7EAB1E40E947B056B017C01ACEEB9
S1130BC0B4EFA50194010E945C06DC01CB018C0DFD
S1130BD09D1DAE1DBF1DB7FF03C00197A109B048FD
S1130BE088839983AA83BB83BC01CD019F77DF915E
S1130BF0CF91FF90EF90DF90CF90BF90AF909F90F8
S1130C008F9008958F929F92AF92BF92CF92DF926E
S1130C10EF92FF92609100017091010180910201B5
S1130C2090910301611571058105910521F464E238
S1130C3079ED8BE597E02DE133EF41E050E00E9440
S1130C405C0549015A019B01AC01A7EAB1E40E9489
S1130C507B056B017C01ACEEB4EFA50194010E940D
S1130C605C06DC01CB018C0D9D1DAE1DBF1DB7FFC5
S1130C7003C00197A109B04880930001909301013A
S1130C80A0930201B0930301BC01CD019F77FF90B3
S1130C90EF90DF90CF90BF90AF909F908F9008958A
S1130CA0609300017093010180930201909303010A
S1130CB00895B7FF0C947B050E947B05821B930B60
S1090CC00895F894FFCF33
S1090CC601000000010022
S9030000FC
